:100000000C9438000C9442000C9442000C94420072
:100010000C9442000C9442000C9442000C94420058
:100020000C9442000C9442000C9442000C94420048
:100030000C9442000C9442000C9442000C94420038
:100040000C9442000C9442000C9442000C94420028
:100050000C9442000C9442000C9442000C94420018
:100060000C9442000C9442000C9442000C94420008
:1000700011241FBECFEFD4E0DEBFCDBF0E944400ED
:100080000C9465000C9400000E94590088E40E94C2
:10009000610089E60E9461008AE00E94610088E4B4
:1000A0000E94610089E60E9461008AE00E9461006E
:1000B000F6CF10BC8FE189B988E18AB986E880BDA6
:0E00C00008955D9BFECF8CB90895F894FFCF94
:00000001FF
