:100000000C9438000C9442000C9442000C94420072
:100010000C9442000C9442000C9442000C94420058
:100020000C9442000C9442000C9442000C94420048
:100030000C9442000C9442000C9442000C94420038
:100040000C9442000C9442000C9442000C94420028
:100050000C9442000C9442000C9442000C94420018
:100060000C9442000C9442000C9442000C94420008
:1000700011241FBECFEFD4E0DEBFCDBF0E944400ED
:100080000C9485000C94000085B7806885BF80B70C
:10009000806280BF80E0E82FF0E0F05F2FEF3FE765
:1000A00094E0215030409040E1F700C00000108201
:1000B0002FEF3FE794E0215030409040E1F700C03F
:1000C00000008F5F2FEF3FE794E0215030409040D9
:1000D000E1F700C00000DFCF10BC8FE189B988E1F3
:1000E0008AB986E880BD08955D9BFECF8CB90895DE
:1000F0005F9BFECF8CB1089588275F998395089503
:0E0100000E94740080E090E00895F894FFCF14
:00000001FF
