:100000000C9438000C9455000C9455000C94550039
:100010000C9455000C9455000C9455000C9455000C
:100020000C9455000C9455000C9455000C945500FC
:100030000C9455000C9455000C9455000C945500EC
:100040000C9455000C9455000C9455000C945500DC
:100050000C9455000C9455000C9455000C945500CC
:100060000C9455000C9455000C9455000C945500BC
:1000700011241FBECFEFD4E0DEBFCDBF11E0A0E062
:10008000B1E0E6E8F4E002C005900D92AA30B107B5
:10009000D9F721E0AAE0B1E001C01D92A431B20776
:1000A000E1F70E9457000C9441020C9400000E945A
:1000B000680060E070E08CE790E00E94810086E0DC
:1000C00091E00E94CB000E9474000E947000FBCF60
:1000D00010BC8FE189B988E18AB986E880BD0895AE
:1000E0005D9BFECF8CB908955F9BFECF8CB10895C8
:1000F00088275F99839508950E94700080E090E0C2
:1001000008950F931F93CF93DF93EC018B01892BFD
:1001100051F4672B41F4E0E0F0E0CF01DF91CF91A3
:100120001F910F9108956EE070E081E090E00E94D1
:10013000F700FC01892B79F380E883830115110511
:1001400071F01387028781E8838380910A0190917F
:100150000B01892B21F4F0930B01E0930A01209706
:10016000E1F2D187C08783818260838380910C0113
:1001700090910D01892B89F6F0930D01E0930C010C
:1001800080910E0190910F01892B39F6F0930F01A8
:10019000E0930E01C2CF0F931F93CF93DF93E091B3
:1001A0000C01F0910D01238100E010E021FD0EC053
:1001B0000FEF1FEFC801DF91CF911F910F910895AD
:1001C0000995892B11F00FEF1FEFCE01EC018991FA
:1001D00060910C0170910D01DB011896ED91FC917D
:1001E0008111EECF8AE00995892B21F3E1CF0F939E
:1001F0001F93CF93DF93869F8001879F100D969F5B
:10020000100D1124C8010E941301EC01009729F080
:10021000A80160E070E00E943A02CE01DF91CF9128
:100220001F910F9108950F931F93CF93DF939C011C
:10023000029710F422E030E0E0911001F0911101FA
:1002400080E090E0A0E0B0E0309791F4009709F4EE
:1002500048C0821B930B84309105D0F58A819B8125
:100260006115710581F1FB0193838283FE0111C049
:10027000408151810281138142175307D8F0421700
:10028000530799F4109761F012960C9312971396F6
:100290001C933296CF01DF91CF911F910F9108955A
:1002A0000093100110931101F4CF009751F04817FB
:1002B000590738F0AC01DB01CA01BD01DF01F801CB
:1002C000C3CFEF01F9CF9093110180931001CECFEE
:1002D000FE01E80FF91F21933193029799838883D8
:1002E000D9CF40911201509113014115510541F4AC
:1002F0004091020150910301509313014093120168
:100300008091000190910101009741F48DB79EB753
:100310006091040170910501861B970B48175907DE
:1003200008F0B8CF841B950B8217930708F4B2CF5F
:10033000B9016E5F7F4F8617970708F4ABCF640F44
:10034000751F7093130160931201FA012193319389
:10035000A1CFCF93DF939C010097E9F0FC01329786
:1003600013821282C0911001D0911101DE0180E050
:1003700090E02097A1F480819181280F391F80910E
:100380001201909113018217930709F068C0F0934E
:100390001301E0931201DF91CF910895DA01AE17B6
:1003A000BF0708F042C012964D915C911397CD01A2
:1003B0004115510599F7DC011396FC93EE931297C2
:1003C0004D915D919D01240F351FE217F30781F4D4
:1003D000208131812E5F3F4F240F351FDC011196A4
:1003E0003C932E932281338113963C932E93129744
:1003F000E0E0F0E08A819B810097B1F5DE018D910C
:100400009D918A0F9B1F2091120130911301281793
:10041000390709F6309759F5109211011092100121
:10042000D0931301C0931201B6CFB383A28340814E
:100430005181240F351FA217B30771F44E5F5F4F30
:100440002D913C911197240F351F318320831296F3
:100450002D913C9133832283009709F0ACCFF09328
:100460001101E093100197CFFE01EC01C3CF13827D
:100470001282D6CFDC0101C06D9341505040E0F7AD
:060480000895F894FFCF7F
:0A0486000000140120006865690001
:00000001FF
