:100000000C9460030C949B080C947D030C947D036A
:100010000C947D030C947D030C947D030C947D0360
:100020000C947D030C947D030C947D030C947D0350
:100030000C947D030C947D030C947D030C947D0340
:100040000C947D030C947D030C947D030C947D0330
:100050000C947D030C947D030C947D030C947D0320
:100060000C947D030C947D030C947D030C947D0310
:1000700000000000005C00000C000C007C287C28C4
:1000800058DC68002410480028542840000C000068
:10009000007884008478000054385400107C1000EC
:1000A00080400000101010000040000060100C00A4
:1000B00038543800487C40004864580044542C00B0
:1000C0001C107C005C5424003854240064140C0080
:1000D00068542C0048543800004800008048000054
:1000E0001028440028282800442810000454080040
:1000F00038445C00781478007C5428003844280088
:100100007C4438007C5444007C140400384474005F
:100110007C107C00447C440020403C007C106C003F
:100120007C4040007C187C0078103C00384438004B
:100130007C1408003844B8007C146800485424003B
:10014000047C04007C407C003C603C007C307C00F3
:100150006C106C000C700C0064544C00007C44006B
:100160000C106000447C00000804080080808000BF
:1001700000040800304878007C48300030484800CF
:1001800030487C00306850001078140090A8780047
:100190007C08700050744000808074007C106800FF
:1001A000447C4000781078007808700030483000B7
:1001B000F82810003048F80078100800505828003F
:1001C000083C4800384078003840380078207800F3
:1001D0004830480098A0780048685800107884009B
:1001E000007C00008478100008040804000000006F
:1001F0000000005F00000007000700147F147F1458
:10020000242A7F2A1223130864623649552250009B
:1002100005030000001C2241000041221C00082AA6
:100220001C2A0808083E080800503000000808088A
:100230000808006060000020100804023E51494593
:100240003E00427F400042615149462141454B31C9
:100250001814127F1027454545393C4A4949300159
:10026000710905033649494936064949291E0036B0
:100270003600000056360000000814224114141401
:10028000141441221408000201510906324979412F
:100290003E7E1111117E7F494949363E414141223E
:1002A0007F4141221C7F494949417F090901013EA3
:1002B000414151327F0808087F00417F41002040C2
:1002C000413F017F081422417F404040407F0204AB
:1002D000027F7F0408107F3E4141413E7F090909AA
:1002E000063E4151215E7F09192946464949493157
:1002F00001017F01013F4040403F1F2040201F7F00
:100300002018207F631408146303047804036151E8
:1003100049454300007F4141020408102041417FCC
:100320000000040201020440404040400001020479
:100330000020545454787F4844443838444444207E
:10034000384444487F3854545418087E0901020840
:100350001454543C7F0804047800447D400020403D
:10036000443D00007F10284400417F40007C041879
:1003700004787C0804047838444444387C14141409
:1003800008081414187C7C080404084854545420A9
:10039000043F4440203C4040207C1C2040201C3C2A
:1003A0004030403C44281028440C5050503C446499
:1003B000544C44000836410000007F0000004136E4
:1003C000080002010302010000000000000000001C
:1003D000065F5F0600000000070700070700001423
:1003E0007F7F147F7F1400242E6B6B3A120000462F
:1003F0006630180C666200307A4F5D377A48000428
:1004000007030000000000001C3E634100000000E4
:1004100041633E1C000000082A3E1C1C3E2A0808BE
:10042000083E3E0808000000A0E060000000000850
:100430000808080808000000006060000000006074
:1004400030180C060301003E7F594D7F3E000042EC
:10045000427F7F40400000627359496F660000226E
:100460006349497F360000181C16137F7F10002750
:100470006745457D3900003C7E4B497930000003DB
:100480006371190F070000367F49497F3600000667
:100490004F49693F1E000000006C6C000000000026
:1004A000A0EC6C00000000081C3663410000001442
:1004B00014141414140000004163361C08000002D8
:1004C0000351590F0600003E7F415D5D1F1E007CF9
:1004D0007E13137E7C0000417F7F49497F36001CDC
:1004E0003E634141632200417F7F41637F1C0041A5
:1004F0007F7F495D416300417F7F491D0103001CEF
:100500003E6341517372007F7F08087F7F000000C7
:10051000417F7F41000000307040417F3F0100413A
:100520007F7F081C776300417F7F41406070007FC0
:100530007F060C067F7F007F7F060C187F7F001CE4
:100540003E6341633E1C00417F7F49090F06001E48
:100550003F21717F5E0000417F7F19396F46002681
:10056000674D597B32000003417F7F410300007FCC
:100570007F40407F7F00001F3F60603F1F00007F83
:100580007F3018307F7F0063771C081C776300077B
:100590004F78784F0700006773594D47637100002B
:1005A0007F7F41410000000103060C18306000000D
:1005B00041417F7F000000080C0603060C08008004
:1005C000808080808080800000030704000000207D
:1005D0007454543C784000413F7F44447C38003898
:1005E0007C44446C280000307848493F7F40003804
:1005F0007C54545C180000487E7F49030200009838
:10060000BCA4A4F87C0400417F7F08047C7800002F
:10061000447D7D4000000040C484FD7D0000004119
:100620007F7F10386C440000417F7F400000007CD9
:100630007C0C180C7C78007C7C04047C78000038EE
:100640007C44447C38000084FCF8A4243C18001846
:100650003C24A4F8FC8400447C78441C1800004826
:100660005C54547424000000043E7F442400003C89
:100670007C40403C7C40001C3C60603C1C00003CDA
:100680007C6030607C3C00446C3810386C44009CCA
:10069000BCA0A0FC7C00004C64745C4C64000008AE
:1006A000083E7741410000000000777700000041DC
:1006B00041773E0808000002030103020301000025
:1006C00011241FBECFEFD4E0DEBFCDBF12E0A0E00B
:1006D000B1E0ECE4FCE102C005900D92A439B10751
:1006E000D9F722E0A4E9B2E001C01D92A33AB20713
:1006F000E1F70E947F030C94240E0C940000CDB708
:10070000DEB766970FB6F894DEBF0FBECDBF85B7D4
:10071000806885BF80B7806280BF0E94260460E049
:1007200070E08AE394E00E9425090E94CF040E94B1
:10073000BE050E94DE050E944B060E9492060E94A2
:10074000DE050E94D4070E9426070E94FB040E9437
:100750004E0584E090E09A8389838B830F2EFFE01F
:100760008F2EF1E09F2EF02D0F2EFFE4AF2EF1E043
:10077000BF2EF02D0F2EF6E4CF2EF1E0DF2EF02D60
:100780000E94B5060E94E7060E94FB04E82EF92E9F
:100790000E944E05082F192F892F990F990B9F93AF
:1007A0001F93802F002E000C990B9F930F938F2D7A
:1007B0000F2C000C990B9F93FF928E2D0E2C000C8A
:1007C000990B9F93EF929F928F920E946F09EC82F8
:1007D000FD820E831F830E9426076295617083E06D
:1007E0000E944D07CE0101960E94F2078CEC94E026
:1007F0000197F1F700C00000CE010C960E94380866
:100800008F811F928F938E811F928F938D811F9264
:100810008F938C811F928F93BF92AF920E946F092A
:100820008A891F928F9389891F928F9388891F923B
:100830008F938F851F928F93DF92CF920E946F09C3
:100840000FB6F894DEBF0FBECDBF9ACF10BC8FE1BC
:1008500089B988E18AB986E880BD08955D9BFECF9D
:100860008CB908955F9BFECF8CB1089588275F995E
:10087000839508950E942E0480E090E00895CF9221
:10088000DF92EF92FF920F931F93CF93DF9389E84C
:1008900091E00E9485090E941509C82ED92E0E9458
:1008A0001A0900E010E0C0E0D0E00F2EF0EAEF2ED1
:1008B000F1E0FF2EF02D06C00F5F1F4F011598E0ED
:1008C0001907F9F00E941509282F392FF801F85E51
:1008D00080834081481781F333273F932F931F92E2
:1008E0004F931F930F93FF92EF920E946F092196EF
:1008F0008DB79EB708960FB6F8949EBF0FBE8DBFFA
:10090000DBCF8C2D9D2D0E941A09C12CD12C00E02B
:1009100010E00F2EFAEDEF2EF1E0FF2EF02D07C0C4
:100920009FEFC91AD90AC11488E0D806F9F00E94CD
:100930001509282F392FF601F85E8081821781F37F
:1009400033273F932F931F928F93DF92CF92FF9283
:10095000EF920E946F090F5F1F4F8DB79EB70896E9
:100960000FB6F8949EBF0FBE8DBFDACF1F930F93C3
:10097000DF93CF9388E192E09F938F930E946F095A
:100980000F900F900F900F900F900F90DF91CF91DD
:100990001F910F91FF90EF90DF90CF9008958D9A67
:1009A00080E48FBD8EB589608EBD1BBC1ABC3298A9
:1009B00008950F931F93CF93DF93082F192F862F3E
:1009C000972FC42FD52F422F532F109200102A9B00
:1009D000FECFE0E0F0E12081D8012C932081DC0102
:1009E0002C93808188838081FA018083DF91CF916D
:1009F0001F910F910895CF93DF9300D000D0CDB712
:100A0000DEB79E012C5F3F4FAE014D5F5F4FBE01D1
:100A10006E5F7F4FCE0101960E94D904898190912B
:100A20000101891B990B44E6489F9001499F300DB5
:100A30001124C90166E570E00E94A10823318EED02
:100A4000380724F1462F2E3E314214F52A81809139
:100A50000001281B330B84E6829FF001839FF00D79
:100A60001124CF0166E570E00E94A108E3318EED0C
:100A7000F80784F0962FEE3EF14274F4842F0F9025
:100A80000F900F900F90DF91CF9108954CE9DECF3A
:100A900044E6DCCF9CE9F2CF94E6F0CFCF93DF932E
:100AA00000D000D0CDB7DEB79E012D5F3F4FAE0125
:100AB0004C5F5F4FBE016E5F7F4FCE0101960E947B
:100AC000D9048B8190910101891B990B44E6489FC1
:100AD0009001499F300D1124C90166E570E00E9424
:100AE000A10823318EED380724F1462F2E3E3142E6
:100AF00014F52C8180910001281B330B84E6829F22
:100B0000F001839FF00D1124CF0166E570E00E9493
:100B1000A108E3318EEDF80784F0962FEE3EF14206
:100B200074F4842F0F900F900F900F90DF91CF915E
:100B300008954CE9DECF44E6DCCF9CE9F2CF94E6A1
:100B4000F0CF0E94FB04803B84F081358CF491351A
:100B500094F421E030E0903B14F020E030E0C90153
:100B6000880F991F880F991F089581E090E00895DC
:100B700082E090E0089583E090E00895CF93DF93C2
:100B800000D000D0CDB7DEB79E012C5F3F4FAE0145
:100B90004D5F5F4FBE016E5F7F4FCE0101960E9499
:100BA000D9048981809301018A81809300010F908B
:100BB0000F900F900F90DF91CF9108958C9A949A97
:100BC00087B3886B87BBBE9888B3886188BB8DB1BB
:100BD00081658DB908958FB9779BFECF8FB1089548
:100BE0008FEF0E94EB050895813031F0823031F0B3
:100BF000811105C0C4980895C398089594980895E4
:100C000088B3886188BB0895CF93C82FC29881E0CC
:100C10000E94F4058C2F0E94EB050E940006CF91E4
:100C20000895CF93C82FC29A81E00E94F4058C2FBB
:100C30000E94EB050E940006CF9108958770806B9B
:100C40000E9404060895CF93C82F8F700E94040657
:100C50008C2F82958F7080610E940406CF91089539
:100C6000CF93C62F0E941E068C2F0E942306CF9181
:100C7000089560E080E00E9430060895CF9360E020
:100C80000E943006C0E880E00E941106C150C111E8
:100C9000FACFCF910895CF93BA9A8EEA0E940406B4
:100CA00081EA0E94040688EC0E940406C0E08C2FB2
:100CB0000E943E06CF5FC830D1F78FEA0E9404063B
:100CC000CF910895EF92FF921F93CF93DF93E82F78
:100CD000F92F8081811501F17F019FEFE91AF90A4F
:100CE000805290E0EC01CC0FDD1FCC0FDD1FC80F50
:100CF000D91FC451DE4F15E0FE0184910E941106F8
:100D0000115021961111F8CF80E00E941106F701D1
:100D100081917F018111E4CFDF91CF911F91FF90ED
:100D2000EF9008950E944B0662E380E00E94300637
:100D300085E792E00E9462066AE082E00E94300647
:100D40008AE792E00E9462066AE084E00E94300630
:100D500081E892E00E9462066AE086E00E94300626
:100D600088E892E00E94620608958091970280933D
:100D700094020E94A105282F392F8091950290910D
:100D800096028217930731F02430310541F0233069
:100D9000310589F030939602209395020895809151
:100DA0009702833021F08F5F80939702F3CF81E029
:100DB00080939702EFCF80919702813021F081508C
:100DC00080939702E7CF83E080939702E3CFE0918F
:100DD0009402F0E0EF5FFE4F64E680810E943006EF
:100DE0008FE892E00E94620680919702813049F07C
:100DF00080919702823071F080919702833099F050
:100E0000089564E682E00E94300681E992E00E9443
:100E10006206EECF64E684E00E94300681E992E04B
:100E20000E946206E9CF64E686E00E94300681E90E
:100E300092E00E94620608958091970208958B982F
:100E4000939A08958827839B839508951F93CF9342
:100E5000DF9380E00E94F40584E00E94EB0581E4CA
:100E60008A95F1F700C00E94F005182F83E08A955B
:100E7000F1F700000E94F005D82F83E08A95F1F782
:100E800000000E94F005C82F0E940006612F7D2FF0
:100E90008C2FDF91CF911F910895CF93DF93D82F9F
:100EA000C62F80E00E94F40585E00E94EB0581E4F6
:100EB0008A95F1F700C08D2F0E94EB058C2F0E94C0
:100EC000EB050E940006DF91CF91089582E00E9419
:100ED000F40580EC0E94EB050E9400060895CF9374
:100EE000C82F82E00E94F40583E00E94EB058C2F5E
:100EF0000E94EB050E94F005C82F0E9400068C2F6F
:100F0000CF910895CF93DF93D82FC62F82E00E9410
:100F1000F40582E00E94EB058D2F0E94EB058C2FDB
:100F20000E94EB050E940006DF91CF910895CF93B8
:100F3000C82F82E00E94F40581E090E002C0880F93
:100F4000991FCA95E2F780680E94EB050E9400068F
:100F5000CF9108951F93CF93DF93182FD62FC42FCF
:100F600082E00E94F40585E00E94EB05812F0E943B
:100F7000EB058D2F0E94EB058C2F0E94EB050E9444
:100F80000006DF91CF911F910895CF9382E00E94D8
:100F9000F40580EA0E94EB050E94F005C82F0E942C
:100FA00000068C2FCF9108950E9466078FEF9FE275
:100FB0000197F1F700C000008A98929A85B7826085
:100FC00085BF85B78E7F85BF8BB780648BBF7894D4
:100FD00040E460EE8FE00E94AA0761E08BE20E948D
:100FE00082070895EF92FF920F931F93CF93DF93A1
:100FF000C82FD92F80E30E946F0783FDFBCF688144
:10100000798176956795769567957695679581E36D
:101010000E94820768816295660F607E82E30E946B
:1010200082070A81102F093008F018E0612F85E34C
:101030000E948207E12EF12C011581F08E010D5FD7
:101040001F4FC0E0D0E0F80161918F018C2F8A5CC6
:101050000E9482072196CE15DF05ACF380E00E9446
:101060009707DF91CF911F910F91FF90EF90089517
:10107000EF92FF920F931F93CF93DF9300D00F92C5
:10108000CDB7DEB7082F192F8CE20E946F07282FEB
:101090002170298380FD0BC089810F900F900F90E4
:1010A000DF91CF911F910F91FF90EF90089581E60E
:1010B0000E946F0790E0880F991F880F991F880F73
:1010C000991FF80120813181822B932B918380839A
:1010D00082E60E946F07282F229526952770F80137
:1010E00080819181822B9183808385E60E946F07A6
:1010F0008F70F80182838115C1F07801F3E0EF0E63
:10110000F11C1B821A828A818A590E946F07F7019B
:1011100081937F012A813B812F5F3F4F3B832A834D
:10112000F80182812817310574F340E061E08CE218
:101130000E94AA07B1CF8F9381E0809398028F918C
:10114000189597FB072E16F4009407D077FD09D069
:101150000E94B50807FC05D03EF4909581959F4FFD
:101160000895709561957F4F0895AA1BBB1B51E1AF
:1011700007C0AA1FBB1FA617B70710F0A61BB70B07
:10118000881F991F5A95A9F780959095BC01CD01AC
:1011900008958F929F92AF92BF92CF92DF92EF927B
:1011A000FF92CF93DF93EC01688179818A819B81E3
:1011B000611571058105910521F464E279ED8BE5F6
:1011C00097E02DE133EF41E050E00E948A0D4901A4
:1011D0005A019B01AC01A7EAB1E40E94A90D6B0181
:1011E0007C01ACEEB4EFA50194010E94B70DDC01C7
:1011F000CB018C0D9D1DAE1DBF1DB7FF03C0019718
:10120000A109B04888839983AA83BB839F77DF9124
:10121000CF91FF90EF90DF90CF90BF90AF909F90D5
:101220008F9008950E94C908089585E091E00E947A
:10123000C9080895A0E0B0E08093050190930601ED
:10124000A0930701B093080108950F931F93CF93C4
:10125000DF93EC018B01892B51F4672B41F4E0E023
:10126000F0E0CF01DF91CF911F910F9108956EE0D3
:1012700070E081E090E00E949C0BFC01892B79F3E7
:1012800080E883830115110571F01387028781E8D7
:1012900083838091990290919A02892B21F4F09393
:1012A0009A02E09399022097E1F2D187C087838167
:1012B0008260838380919B0290919C02892B89F6A6
:1012C000F0939C02E0939B0280919D0290919E027C
:1012D000892B39F6F0939E02E0939D02C2CFA0E0E5
:1012E000B0E0E5E7F9E00C94CC0DAE014B5F5F4F49
:1012F000FA0161917191AF0180919B0290919C02E2
:101300000E94B109E2E00C94E80D0F931F93CF9374
:10131000DF93E0919B02F0919C02238100E010E0BA
:1013200021FD0EC00FEF1FEFC801DF91CF911F917C
:101330000F9108950995892B11F00FEF1FEFCE0142
:10134000EC01899160919B0270919C02DB011896DF
:10135000ED91FC918111EECF8AE00995892B21F363
:10136000E1CFABE0B0E0E7EBF9E00C94BF0D6C012E
:101370007B018A01FC0117821682838181FFD9C11A
:101380009AE0592EF6012381F70123FD859123FF71
:1013900081917F01811509F41FC1853239F423FD44
:1013A000959123FF91917F01953229F4B60190E048
:1013B0000E94FC0CE7CF30E0912C612C712CF0E204
:1013C0007F1640F59B32D9F058F49032D1F0933229
:1013D000F1F09E3299F576FCFFC0689476F806C06D
:1013E0009D3291F09033C1F4689470F8F70123FDB9
:1013F000959123FF91917F019111E1CF29C06894CC
:1014000071F8689472F8F2CF689473F8EFCF68942B
:1014100074F8ECCF77FC1CC080ED890F8A30C8F6D9
:1014200076FE05C0959C800D1124982EDFCF659C1B
:10143000800D1124682E689475F8D8CF9C3619F465
:10144000689477F8D3CF9C3409F44BC0983671F286
:10145000892F8F7D8554833008F445C0933609F475
:1014600066C0933709F469C0933509F475C09436A2
:1014700019F0993609F09FC0F80177FE95C0619187
:101480007191819191918F01272D2F76822E97FF57
:1014900009C090958095709561957F4F8F4F9F4FB4
:1014A000689487F82AE030E0AE014F5F5F4F5A0141
:1014B0000E942C0D8A19A82E86FEC4C0882D8E7F0E
:1014C000A91408F0BEC084FE11C182FC05C1F82D2C
:1014D000FE7E8F2EB92C882D8678811509F4BFC029
:1014E00000C131E083CF3115F9F0085F1F4F8FE362
:1014F000898388248394912CAE014F5F5F4F5A01FA
:10150000E89477F873FC03C086149104B0F1811459
:101510009104D1F5611409F435CFB60180E290E071
:101520000E94FC0C6A94F6CF0C5F1F4FE0CFF801CD
:10153000808189830E5F1F4FDCCFF801A190B190AD
:101540008F01692D70E076FC02C06FEF7FEFC5015F
:101550000E94F10C4C01D4CFF801A190B1908F0101
:10156000692D70E076FC02C06FEF7FEFC5010E942D
:10157000DF0C4C01689477F8C5CFB60180E290E0AB
:101580000E94FC0C6A94C0CFF50177FC859177FE30
:1015900081915F01B60190E00E94FC0C61106A9499
:1015A000F1E08F1A9108B3CF61917191072E000C71
:1015B000880B990B68CF872CE89484F82AE030E0F8
:1015C000953739F1572D597F852E903799F058F47A
:1015D0009835A9F09F36D9F0F601868197812B9630
:1015E000EFE00C94DB0D9837B9F774FC05C020E1EF
:1015F00030E00FC0689484F8689482F8F8CF74FEE5
:1016000003C0872D8660882E20E132E002C028E0EA
:1016100030E0F80187FE10C0619171918191919144
:101620008F01FE0131965F01AF010E942C0D8A19D6
:10163000A82EE89487F840CF6191719180E090E006
:10164000EFCF882EBA2C84FE46CFFE01EA0DF11DA5
:101650008081803309F043C0282D297E822E83FCAF
:101660000EC080FE4FC09A2CB61418F4960C9B182E
:10167000B62C862D8B196B1408F480E0B80EB614C6
:1016800008F042C06B1884FE41C0B60180E390E0D0
:101690000E94FC0C82FE09C088E590E081FC02C03B
:1016A00088E790E0B6010E94FC0CA914D8F1AA9436
:1016B000B12C4FEFA41AB40ACE0101964C01A80E2A
:1016C000B91EF50182915F01B60190E00E94FC0C09
:1016D0008A149B04B1F71ECFB92C882EB6CF82FC9A
:1016E00002C0B394BCCFB394B394B9CFB92C882EB5
:1016F000F2CEB60180E290E00E94FC0C7394761466
:10170000C0F3B7CF7B2CFBCF612CBDCF882D867863
:10171000811559F280E281FC8BE287FC8DE2B601F3
:1017200090E0C1CFB60180E390E00E94FC0C9A9457
:10173000BCCF8FEF9FEF53CF0F931F93CF93DF93C8
:10174000869F8001879F100D969F100D1124C80160
:101750000E94B80BEC01009729F0A80160E070E04E
:101760000E94EA0CCE01DF91CF911F910F91089555
:101770000F931F93CF93DF939C01029710F422E005
:1017800030E0E0919F02F091A00280E090E0A0E0C4
:10179000B0E0309791F4009709F448C0821B930B96
:1017A00084309105D0F58A819B816115710581F1A5
:1017B000FB0193838283FE0111C04081518102812C
:1017C000138142175307D8F04217530799F4109723
:1017D00061F012960C93129713961C933296CF01D8
:1017E000DF91CF911F910F91089500939F02109365
:1017F000A002F4CF009751F04817590738F0AC0118
:10180000DB01CA01BD01DF01F801C3CFEF01F9CF50
:101810009093A00280939F02CECFFE01E80FF91FA4
:1018200021933193029799838883D9CF4091A10264
:101830005091A2024115510541F440910B01509184
:101840000C015093A2024093A10280910901909152
:101850000A01009741F48DB79EB760910D01709118
:101860000E01861B970B4817590708F0B8CF841B49
:10187000950B8217930708F4B2CFB9016E5F7F4FC3
:101880008617970708F4ABCF640F751F7093A202F9
:101890006093A102FA0121933193A1CFCF93DF93FB
:1018A0009C010097E9F0FC01329713821282C091EB
:1018B0009F02D091A002DE0180E090E02097A1F489
:1018C00080819181280F391F8091A1029091A202FD
:1018D0008217930709F068C0F093A202E093A10277
:1018E000DF91CF910895DA01AE17BF0708F042C02B
:1018F00012964D915C911397CD014115510599F7C1
:10190000DC011396FC93EE9312974D915D919D012E
:10191000240F351FE217F30781F4208131812E5FF8
:101920003F4F240F351FDC0111963C932E932281EB
:10193000338113963C932E931297E0E0F0E08A8176
:101940009B810097B1F5DE018D919D918A0F9B1FC0
:101950002091A1023091A2022817390709F6309789
:1019600059F51092A00210929F02D093A202C09348
:10197000A102B6CFB383A28340815181240F351FCA
:10198000A217B30771F44E5F5F4F2D913C911197F1
:10199000240F351F3183208312962D913C91338380
:1019A0002283009709F0ACCFF093A002E0939F024E
:1019B00097CFFE01EC01C3CF13821282D6CFFC0178
:1019C0000590615070400110D8F7809590958E0F6A
:1019D0009F1F0895DC0101C06D9341505040E0F716
:1019E0000895FC016150704001900110D8F7809576
:1019F00090958E0F9F1F08950F931F93CF93DF93A2
:101A0000182F092FEB018B8181FD09C01FEF0FEF0C
:101A1000812F902FDF91CF911F910F91089582FF19
:101A200014C02E813F818C819D81281739073CF499
:101A3000E881F981CF0101969983888310838E8193
:101A40009F8101969F838E83E3CFE885F985812F5F
:101A50000995892BA1F3DACFFA01AA27283051F191
:101A6000203181F1E8946F936E7F6E5F7F4F8F4FCF
:101A70009F4FAF4FB1E03ED0B4E03CD0670F781F2E
:101A8000891F9A1FA11D680F791F8A1F911DA11D13
:101A90006A0F711D811D911DA11D20D009F468944C
:101AA0003F912AE0269F11243019305D3193DEF6F4
:101AB000CF010895462F4770405D4193B3E00FD0AA
:101AC000C9F7F6CF462F4F70405D4A3318F0495D95
:101AD00031FD4052419302D0A9F7EACFB4E0A69578
:101AE0009795879577956795BA95C9F7009761059A
:101AF000710508959B01AC010A2E069457954795F0
:101B000037952795BA95C9F7620F731F841F951FE4
:101B1000A01D0895052E97FB1EF400940E94A10DB0
:101B200057FD07D00E94F30D07FC03D04EF40C9430
:101B3000A10D50954095309521953F4F4F4F5F4FE8
:101B4000089590958095709561957F4F8F4F9F4F29
:101B500008950E94150EA59F900DB49F900DA49F0F
:101B6000800D911D11240895B7FF0C94A90D0E94BA
:101B7000A90D821B930B08952F923F924F925F9273
:101B80006F927F928F929F92AF92BF92CF92DF928D
:101B9000EF92FF920F931F93CF93DF93CDB7DEB7F2
:101BA000CA1BDB0B0FB6F894DEBF0FBECDBF099486
:101BB0002A88398848885F846E847D848C849B84DD
:101BC000AA84B984C884DF80EE80FD800C811B81EB
:101BD000AA81B981CE0FD11D0FB6F894DEBF0FBE1A
:101BE000CDBFED010895A1E21A2EAA1BBB1BFD017A
:101BF0000DC0AA1FBB1FEE1FFF1FA217B307E407EC
:101C0000F50720F0A21BB30BE40BF50B661F771F43
:101C1000881F991F1A9469F7609570958095909523
:101C20009B01AC01BD01CF010895A29FB001B39FFC
:101C3000C001A39F700D811D1124911DB29F700DD5
:0C1C4000811D1124911D0895F894FFCF20
:101C4C008080020406010000000000A30220007442
:101C5C007275653A206A6F79583A20253464206A87
:101C6C006F79593A2025346420736C696465725815
:101C7C003A2025346420736C69646572593A2025C6
:101C8C003464200D0A0072656369657665645F6D66
:101C9C006573736167653A206A6F79583A20253409
:101CAC0064206A6F79593A2025346420736C696416
:101CBC006572583A2025346420736C6964657259D6
:101CCC003A20253464200D0A005374617274696ED5
:101CDC0067205352414D20746573742E2E2E0D00C7
:101CEC005772697465207068617365206572726FD4
:101CFC00723A206578745F72616D5B2534645D2087
:101D0C003D2025303258202873686F756C64206232
:101D1C00652025303258290D0A00526574726965A8
:101D2C0076616C207068617365206572726F723AAF
:101D3C00206578745F72616D5B2534645D203D2095
:101D4C0025303258202873686F756C6420626520CA
:101D5C0025303258290D0A005352414D20746573B9
:101D6C007420636F6D706C6574656420776974683A
:101D7C00200D0A253464206572726F727320696EAF
:101D8C0020777269746520706861736520616E6478
:101D9C00200D0A253464206572726F727320696E8F
:101DAC002072657472696576616C20706861736508
:101DBC000D0A0D0A004D454E550056616C672031D9
:101DCC000056616C6720320056616C67203300202E
:041DDC0000580000AB
:00000001FF
