:100000000C940E050C94350D0C942B050C942B05BB
:100010000C942B050C942B050C942B050C942B05A0
:100020000C942B050C942B050C942B050C942B0590
:100030000C942B050C942B050C942B050C942B0580
:100040000C942B050C942B050C942B050C942B0570
:100050000C942B050C942B050C942B050C942B0560
:100060000C942B050C942B050C942B050C942B0550
:10007000372E20496E67656E206E79206D656C6441
:10008000696E67202D3E2072656365697665207212
:10009000657475726E65726572203000362E20416F
:1000A0007662727564642070616120494E5430201C
:1000B000285044322900202020696E67656E206137
:1000C0007662727564642E20536A656B6B20494EAC
:1000D000542D70696E6E656E20284D435032353157
:1000E000352070696E6E6520313229202D3E2050FA
:1000F00044320D0A000D0A002025303278002020FD
:100100002025532069643D307825303378206C6594
:100110006E3D257520646174613A00352E2046617C
:1001200073746520746573746D656C64696E67655E
:1001300072202849442C206C656E6764652C20640D
:1001400061746129006D6F74746174743A00736531
:100150006E64743A2020002020206D656C64696E06
:10016000672025753A20756C696B0D0A00202020E8
:100170006D656C64696E672025753A20696E6765E8
:100180006E74696E67206D6F74746174740D0A000B
:100190000000000000000000000000FF0708FFFF53
:1001A000FFFFFFFFFFFF55050855AA55AA55AA55A1
:1001B000AAAA020142000000000000002301080179
:1001C000020304050607080400049C640080000084
:1001D0000000342E2052656164205374617475737D
:1001E0002028525830494629002020207374617419
:1001F000757320666F65723D3078253032782065E2
:10020000747465723D3078253032780D0A00332ED3
:1002100020426974204D6F64696679002020206651
:100220006F65723D30782530327820736174743D8B
:10023000307825303278206E756C6C7374696C740C
:100240003D3078253032780D0A00322E204C6F6F09
:10025000706261636B2D6D6F6475730020202043A5
:10026000414E535441543D30782530327820286631
:100270006F7276656E7465742030783458290D0A73
:10028000000D0A005B4645494C5D20005B204F4B4A
:10029000205D2000312E2053504920736B72697607
:1002A0002F6C657320726567697374657200202016
:1002B00020736B726576203078253032782C206C74
:1002C00065737465203078253032780D0A006D6FC3
:1002D00074746174743A20494E47454E54494E47F0
:1002E00020202825752F2575204F4B290D0A0D0A32
:1002F000006D6F7474617474206A6F79583A253494
:1003000064206A6F79593A25346420736C583A2511
:10031000346420736C593A253464202069643D307C
:1003200078253033782020257320202825752F2527
:1003300075204F4B290D0A0D0A0073656E647420F9
:1003400020206A6F79583A253464206A6F79593AC7
:1003500025346420736C583A25346420736C593A00
:100360002534640D0A003D3D3D3D3D202575204F5F
:100370004B2C202575204645494C203D3D3D3D3DBB
:100380000D0A0D0A0043414E535441543A2030782F
:1003900025303278202043414E4354524C3A20308D
:1003A00078253032780D0A000D0A3D3D3D3D3D2057
:1003B00043414E2D7465737420286C6F6F706261B9
:1003C000636B29203D3D3D3D3D0D0A0000000000CE
:1003D000005C00000C000C007C287C2858DC6800C5
:1003E0002410480028542840000C000000788400A5
:1003F0008478000054385400107C100080400000C5
:10040000101010000040000060100C00385438003C
:10041000487C40004864580044542C001C107C0068
:100420005C5424003854240064140C0068542C00DC
:10043000485438000048000080480000102844005C
:1004400028282800442810000454080038445C0080
:10045000781478007C542800384428007C44380004
:100460007C5444007C140400384474007C107C00EC
:10047000447C440020403C007C106C007C404000E8
:100480007C187C0078103C00384438007C1408004C
:100490003844B8007C14680048542400047C0400EC
:1004A0007C407C003C603C007C307C006C106C002C
:1004B0000C700C0064544C00007C44000C10600074
:1004C000447C0000080408008080800000040800CC
:1004D000304878007C4830003048480030487C0084
:1004E000306850001078140090A878007C087000E4
:1004F00050744000808074007C106800447C400090
:10050000781078007808700030483000F828100023
:100510003048F8007810080050582800083C48007F
:10052000384078003840380078207800483048005B
:1005300098A078004868580010788400007C00007B
:100540008478100008040804000000000000005F28
:1005500000000007000700147F147F14242A7F2A5C
:100560001223130864623649552250000503000027
:10057000001C2241000041221C00082A1C2A0808F5
:10058000083E08080050300000080808080800600D
:1005900060000020100804023E5149453E00427FA1
:1005A000400042615149462141454B311814127FA8
:1005B0001027454545393C4A494930017109050331
:1005C0003649494936064949291E00363600000099
:1005D0005636000000081422411414141414412249
:1005E0001408000201510906324979413E7E111179
:1005F000117E7F494949363E414141227F41412296
:100600001C7F494949417F090901013E414151325D
:100610007F0808087F00417F41002040413F017F63
:10062000081422417F404040407F0204027F7F0443
:1006300008107F3E4141413E7F090909063E415174
:10064000215E7F09192946464949493101017F0147
:10065000013F4040403F1F2040201F7F2018207F47
:10066000631408146303047804036151494543008B
:10067000007F4141020408102041417F0000040234
:100680000102044040404040000102040020545454
:1006900054787F48444438384444442038444448DB
:1006A0007F3854545418087E090102081454543CED
:1006B0007F0804047800447D40002040443D000051
:1006C0007F10284400417F40007C041804787C0897
:1006D00004047838444444387C141414080814146E
:1006E000187C7C080404084854545420043F4440B7
:1006F000203C4040207C1C2040201C3C4030403CA2
:1007000044281028440C5050503C4464544C44003D
:100710000836410000007F00000041360800020159
:10072000030201000000000000000000065F5F06F9
:100730000000000007070007070000147F7F147FF8
:100740007F1400242E6B6B3A120000466630180CA2
:10075000666200307A4F5D377A4800040703000074
:10076000000000001C3E63410000000041633E1C8D
:10077000000000082A3E1C1C3E2A0808083E3E08CD
:1007800008000000A0E06000000000080808080859
:1007900008000000006060000000006030180C06D7
:1007A0000301003E7F594D7F3E000042427F7F4063
:1007B000400000627359496F660000226349497F17
:1007C000360000181C16137F7F1000276745457DF3
:1007D0003900003C7E4B4979300000036371190FEA
:1007E000070000367F49497F360000064F49693FC0
:1007F0001E000000006C6C0000000000A0EC6C000B
:10080000000000081C366341000000141414141486
:10081000140000004163361C080000020351590F08
:100820000600003E7F415D5D1F1E007C7E13137E2F
:100830007C0000417F7F49497F36001C3E63414177
:10084000632200417F7F41637F1C00417F7F495DC0
:10085000416300417F7F491D0103001C3E634151FC
:100860007372007F7F08087F7F000000417F7F4117
:10087000000000307040417F3F0100417F7F081C35
:10088000776300417F7F41406070007F7F060C06E8
:100890007F7F007F7F060C187F7F001C3E634163D3
:1008A0003E1C00417F7F49090F06001E3F21717FDA
:1008B0005E0000417F7F19396F460026674D597BE6
:1008C00032000003417F7F410300007F7F40407F73
:1008D0007F00001F3F60603F1F00007F7F301830A7
:1008E0007F7F0063771C081C776300074F78784F81
:1008F0000700006773594D47637100007F7F4141D6
:100900000000000103060C183060000041417F7FA9
:10091000000000080C0603060C0800808080808020
:100920008080800000030704000000207454543CC1
:10093000784000413F7F44447C3800387C44446C1C
:10094000280000307848493F7F4000387C54545C90
:10095000180000487E7F490302000098BCA4A4F858
:100960007C0400417F7F08047C780000447D7D404A
:1009700000000040C484FD7D000000417F7F1038EE
:100980006C440000417F7F400000007C7C0C180C10
:100990007C78007C7C04047C780000387C44447CB7
:1009A00038000084FCF8A4243C1800183C24A4F867
:1009B000FC8400447C78441C180000485C54547447
:1009C00024000000043E7F442400003C7C40403C66
:1009D0007C40001C3C60603C1C00003C7C60306043
:1009E0007C3C00446C3810386C44009CBCA0A0FCDB
:1009F0007C00004C64745C4C64000008083E774145
:100A000041000000000077770000004141773E0878
:100A100008000002030103020301000011241FBEAD
:100A2000CFEFD4E0DEBFCDBF12E0A0E0B1E0E0EE5A
:100A3000F5E202C005900D92A833B107D9F722E084
:100A4000A8E3B2E001C01D92A934B207E1F70E9409
:100A5000D3050C94EE120C940000CF93DF93C82FB3
:100A6000D92F6115F1F08CE892E09F938F930E944B
:100A7000280EDF93CF930E94280E81E892E09F9387
:100A80008F930E94280E809139028F5F80933902E4
:100A90000F900F900F900F900F900F90DF91CF91CC
:100AA000089584E892E09F938F930E94280EDF932D
:100AB000CF930E94280E81E892E09F938F930E942B
:100AC000280E809138028F5F809338020F900F902C
:100AD0000F900F900F900F90E1CFCF92DF92EF9297
:100AE000FF920F931F93CF93062F172FF8012281A8
:100AF0001F922F9321812F9320812F939F938F9368
:100B00008EEF90E09F938F930E94280E8DB79EB733
:100B100008960FB6F8949EBF0FBE8DBFF801828174
:100B20008115F9F06801F3E0CF0ED11CC0E00F2E63
:100B3000F8EFEF2EF0E0FF2EF02DF60181916F011E
:100B40001F928F93FF92EF920E94280ECF5F0F901B
:100B50000F900F900F90F8018281C81710F4C830E1
:100B600061F785EF90E09F938F930E94280E0F907E
:100B70000F90CF911F910F91FF90EF90DF90CF904A
:100B80000895CF93DF93C8EED3E08CE20E940D0C62
:100B9000982F917080FD03C021972097B1F7892F7E
:100BA000DF91CF910895CDB7DEB7AC970FB6F8942B
:100BB000DEBF0FBECDBF85B7806885BF80B78062BE
:100BC00080BF0E94C30860E070E087ED98E00E945B
:100BD000C80D0E946C090E945B0A0E947B0A0E9459
:100BE000300B0E94720C88EA93E09F938F930E94CF
:100BF000280E8FE00E940D0C182F8EE00E940D0C25
:100C00001F921F931F928F9385E893E09F938F937A
:100C10000E94280E80E09FEF988F8F8B8AEA95E5DF
:100C20009A8F898F7E0127E1E20EF11C6E013BE174
:100C3000C30ED11C0FB6F894DEBF0FBECDBF01E0CE
:100C40000F2EFEEAAF2EF2E0BF2EF02D912C03C046
:100C5000EC14FD04E1F0D7011D917D01612F86E4C4
:100C60000E94200C86E40E940D0C181789F31F9235
:100C70008F931F921F93BF92AF920E94280E0F90E6
:100C80000F900F900F900F900F90092DE1CF602FD4
:100C900084E992E00E942D058EE00E940D0C982FB1
:100CA000907E11E0903409F010E0903409F08AC091
:100CB000612F8AE492E00E942D058BE20E940D0CC8
:100CC000182F4FEF60E88BE20E94480C8BE20E94E5
:100CD0000D0C082F40E060E88BE20E94480C8BE28C
:100CE0000E940D0C912F9068091307C0212F30E04E
:100CF0002F7761E08217130691F01F928F931F9256
:100D00000F931F921F938CE192E09F938F930E9409
:100D1000280E0FB6F894DEBF0FBECDBF60E08EE0A8
:100D200092E00E942D058BE0EFE0F1E0DE0192966B
:100D300001900D928A95E1F7CE0182960E94900C67
:100D40000E94C105082F0E94630C182F188E1F8A5D
:100D5000CE0147960E94D60C0E94630C011531F01B
:100D6000612F617010FF02C080FF11C01F928F932E
:100D70001F921F9389EE91E09F938F930E94280EFC
:100D80000F900F900F900F900F900F9060E082EDFA
:100D900091E00E942D050F2EF0E9EF2EF1E0FF2EDD
:100DA000F02D00E010E0772473940F2EFDE6CF2E97
:100DB000F1E0DF2EF02D0F2EF7E5AF2EF1E0BF2E84
:100DC000F02D51C01F928F938CE592E09F938F93EB
:100DD0000E94280E0F900F900F900F9069CFCE01B8
:100DE00047960E94D60C811509F451C02AA13BA157
:100DF0008F89988D28173907A9F42CA1898D28137C
:100E000011C0211541F1FE01B596DE015A962E0F53
:100E10003F2F311D91918D91981304C0E217F30774
:100E2000C9F719C08F929F92BF92AF920E94280E6D
:100E3000BE016E5D7F4F8EE491E00E946D05BE01A4
:100E4000695E7F4F85E491E00E946D050F900F90E1
:100E50000F900F90712C0F5F1F4FFBE0EF0EF11CF6
:100E60000630110501F1902E812E4BE050E0B701C4
:100E7000CE0182960E94BF0D188E1F8A198ECE0158
:100E800082960E94900C0E94C1058111A8CF8F927A
:100E90009F92DF92CF920E94280E0F900F900F909A
:100EA0000F90712CD8CF672D8BE191E00E942D051A
:100EB0008BE0EAE1F1E0DE01929601900D928A95D5
:100EC000E1F710923E02CE0182960E94900C0E94A1
:100ED000C10522E52A95F1F710913E02188E1F8A6E
:100EE000CE0147960E94D60C111509F44FC0612F10
:100EF0008CE990E00E942D05188E1F8ACE0147963E
:100F00000E94D60C61E0811160E080E790E00E94D1
:100F10002D05809138021F928F93809139021F9284
:100F20008F9386E693E09F938F930E94280EFE0195
:100F3000349688E0DF011D928A95E9F784E090E01D
:100F40009A8389838B830F900F900F900F900F904F
:100F50000F90E12CF12C00E010E00F2EFAE3CF2EE1
:100F6000F3E0DF2EF02D0F2EFEEC8F2EF2E09F2E01
:100F7000F02D0F2EF8E26F2EF1E07F2EF02D0F2EC8
:100F8000F1EFAF2EF2E0BF2EF02DAFC086EB90E078
:100F90009F938F930E94280E0F900F90A8CFCE01A1
:100FA0000C960E94D60C811509F4C3C029813A81A0
:100FB0008C859D8528173907E9F52B818E852813A7
:100FC00039C0211571F0FE013496DE011F962E0FF7
:100FD0003F2F311D91918D9198132CC02E173F07F3
:100FE000C9F7BFEFEB1AFB0A822D022C000C990BFC
:100FF0009F932F92832D032C000C990B9F933F926C
:10100000842D042C000C990B9F934F92852D052C59
:10101000000C990B9F935F92DF92CF920E94280E53
:101020000FB6F894DEBF0FBECDBF25E231E0922FA0
:10103000832F23C0822D022C000C990B9F932F929B
:10104000832D032C000C990B9F933F92842D042C2D
:10105000000C990B9F934F92852D052C000C990B3A
:101060009F935F92DF92CF920E94280E0FB6F89462
:10107000DEBF0FBECDBF962D872D1F930F93FF921E
:10108000EF928F939F938D858F938C858F938A8911
:10109000282F082E000C330B3F938F938989282F1C
:1010A000082E000C330B3F938F938889282F082E2E
:1010B000000C330B3F938F938F85282F082E000C45
:1010C000330B3F938F93BF92AF920E94280E0FB6BF
:1010D000F894DEBF0FBECDBF9FEFAFEFB2E09150EF
:1010E000A040B040E1F700C000C00E94530B0E9436
:1010F000850B0E949809582E492E0E94EB09382E24
:10110000292E5C824D828E839F830E94C40B629540
:10111000617083E00E94EB0B0F5F1F4F1D861C86E2
:101120001E86CE0101960E94900C0E94C10581117D
:1011300036CF822D022C000C990B9F932F92832D7A
:10114000032C000C990B9F933F92842D042C000CD0
:10115000990B9F934F92852D052C000C990B9F9313
:101160005F92DF92CF920E94280E1F930F93FF92FF
:10117000EF929F928F920E94280E0FB6F894DEBFD6
:101180000FBECDBFA9CF10BC8FE189B988E18AB964
:1011900086E880BD08955D9BFECF8CB908955F9B66
:1011A000FECF8CB1089588275F99839508950E949A
:1011B000CB0880E090E00895CF92DF92EF92FF920B
:1011C0000F931F93CF93DF938DE291E00E944F0E18
:1011D0000E94AF0DC82ED92E0E94B40D00E010E081
:1011E000C0E0D0E00F2EF4E4EF2EF1E0FF2EF02D62
:1011F00006C00F5F1F4F011598E01907F9F00E9414
:10120000AF0D282F392FF801F85E808340814817F1
:1012100081F333273F932F931F924F931F930F9385
:10122000FF92EF920E94120E21968DB79EB70896FC
:101230000FB6F8949EBF0FBE8DBFDBCF8C2D9D2DBA
:101240000E94B40DC12CD12C00E010E00F2EFEE75F
:10125000EF2EF1E0FF2EF02D07C09FEFC91AD90A3B
:10126000C11488E0D806F9F00E94AF0D282F392F5D
:10127000F601F85E8081821781F333273F932F9325
:101280001F928F93DF92CF92FF92EF920E94120EE5
:101290000F5F1F4F8DB79EB708960FB6F8949EBF8D
:1012A0000FBE8DBFDACF1F930F93DF93CF938CEBDD
:1012B00091E09F938F930E94120E0F900F900F90CA
:1012C0000F900F900F90DF91CF911F910F91FF9092
:1012D000EF90DF90CF9008958D9A80E48FBD8EB50A
:1012E00089608EBD1BBC1ABC329808950F931F9362
:1012F000CF93DF93082F192F862F972FC42FD52F29
:10130000422F532F109200102A9BFECFE0E0F0E115
:101310002081D8012C932081DC012C93808188834B
:101320008081FA018083DF91CF911F910F91089501
:10133000CF93DF9300D000D0CDB7DEB79E012C5FF6
:101340003F4FAE014D5F5F4FBE016E5F7F4FCE01DD
:1013500001960E947609898190910101891B990B60
:1013600044E6489F9001499F300D1124C90166E56C
:1013700070E00E943B0D23318EED380724F1462F9B
:101380002E3E314214F52A8180910001281B330B37
:1013900084E6829FF001839FF00D1124CF0166E562
:1013A00070E00E943B0DE3318EEDF80784F0962F3C
:1013B000EE3EF14274F4842F0F900F900F900F9037
:1013C000DF91CF9108954CE9DECF44E6DCCF9CE974
:1013D000F2CF94E6F0CFCF93DF9300D000D0CDB71B
:1013E000DEB79E012D5F3F4FAE014C5F5F4FBE01E8
:1013F0006E5F7F4FCE0101960E9476098B8190919E
:101400000101891B990B44E6489F9001499F300DCB
:101410001124C90166E570E00E943B0D23318EED79
:10142000380724F1462F2E3E314214F52C8180914D
:101430000001281B330B84E6829FF001839FF00D8F
:101440001124CF0166E570E00E943B0DE3318EED83
:10145000F80784F0962FEE3EF14274F4842F0F903B
:101460000F900F900F90DF91CF9108954CE9DECF50
:1014700044E6DCCF9CE9F2CF94E6F0CF0E949809D5
:10148000803B84F081358CF4913594F421E030E098
:10149000903B14F020E030E0C901880F991F880FBD
:1014A000991F089581E090E0089582E090E008950A
:1014B00083E090E00895CF93DF9300D000D0CDB7C4
:1014C000DEB79E012C5F3F4FAE014D5F5F4FBE0107
:1014D0006E5F7F4FCE0101960E94760989818093CD
:1014E00001018A81809300010F900F900F900F905F
:1014F000DF91CF9108958C9A949A87B3886B87BBBC
:10150000BE9888B3886188BB8DB181658DB9089517
:101510008FB9779BFECF8FB108958FEF0E94880A15
:101520000895813031F0823031F0811105C0C498C6
:101530000895C39808959498089588B3886188BBE6
:10154000949A0895CF93C82FC29881E00E94910A7F
:101550008C2F0E94880A0E949D0ACF910895CF93F4
:10156000C82FC29A81E00E94910A8C2F0E94880A9B
:101570000E949D0ACF9108958770806B0E94A20AF5
:101580000895CF93C82F8F700E94A20A8C2F829546
:101590008F7080610E94A20ACF910895CF93C62FC9
:1015A0000E94BC0A8C2F0E94C10ACF91089560E06E
:1015B00080E00E94CE0A0895CF9360E00E94CE0A98
:1015C000C0E880E00E94AF0AC150C111FACFCF91AC
:1015D0000895CF93BA9A8EEA0E94A20A81EA0E94E5
:1015E000A20A88EC0E94A20AC0E08C2F0E94DC0AAA
:1015F000CF5FC830D1F78FEA0E94A20ACF91089539
:10160000EF92FF921F93CF93DF93E82FF92F808102
:10161000811501F17F019FEFE91AF90A805290E0EC
:10162000EC01CC0FDD1FCC0FDD1FC80FD91FC85B2D
:10163000DA4F15E0FE0184910E94AF0A1150219605
:101640001111F8CF80E00E94AF0AF70181917F016C
:101650008111E4CFDF91CF911F91FF90EF9008951A
:101660000E94E90A62E380E00E94CE0A89E192E0EA
:101670000E94000B6AE082E00E94CE0A8EE192E0B6
:101680000E94000B6AE084E00E94CE0A85E292E0AC
:101690000E94000B6AE086E00E94CE0A8CE292E093
:1016A0000E94000B089580913D0280933A020E94AF
:1016B0003E0A282F392F80913B0290913C028217DD
:1016C000930731F02430310541F02330310589F0A2
:1016D00030933C0220933B02089580913D02833079
:1016E00021F08F5F80933D02F3CF81E080933D0234
:1016F000EFCF80913D02813021F0815080933D02F7
:10170000E7CF83E080933D02E3CFE0913A02F0E03F
:10171000EF5FFE4F64E680810E94CE0A83E392E091
:101720000E94000B80913D02813049F080913D0282
:10173000823071F080913D02833099F0089564E623
:1017400082E00E94CE0A85E392E00E94000BEECF79
:1017500064E684E00E94CE0A85E392E00E94000BDA
:10176000E9CF64E686E00E94CE0A85E392E00E941B
:10177000000B089580913D0208958B98939A0895E7
:101780008827839B839508951F93CF93DF9380E0F1
:101790000E94910A84E00E94880A81E48A95F1F708
:1017A00000C00E948D0A182F83E08A95F1F700008F
:1017B0000E948D0AD82F83E08A95F1F700000E94DD
:1017C0008D0AC82F0E949D0A612F7D2F8C2FDF91DB
:1017D000CF911F910895CF93DF93D82FC62F80E02C
:1017E0000E94910A85E00E94880A81E48A95F1F7B7
:1017F00000C08D2F0E94880A8C2F0E94880A0E94A8
:101800009D0ADF91CF91089582E00E94910A80ECB9
:101810000E94880A0E949D0A0895CF93C82F82E0F3
:101820000E94910A83E00E94880A8C2F0E94880AF5
:101830000E948D0AC82F0E949D0A8C2FCF91089577
:10184000CF93DF93D82FC62F82E00E94910A82E0C7
:101850000E94880A8D2F0E94880A8C2F0E94880A75
:101860000E949D0ADF91CF910895CF93C82F82E007
:101870000E94910A81E090E002C0880F991FCA95EA
:10188000E2F780680E94880A0E949D0ACF9108951D
:101890001F93CF93DF93182FD62FC42F82E00E947F
:1018A000910A85E00E94880A812F0E94880A8D2F64
:1018B0000E94880A8C2F0E94880A0E949D0ADF914C
:1018C000CF911F910895CF9382E00E94910A80EA00
:1018D0000E94880A0E948D0AC82F0E949D0A8C2FA0
:1018E000CF9108950E94040C8FEF9FE20197F1F7CA
:1018F00000C000008A98929A85B7826085BF85B73C
:101900008E7F85BF8BB780648BBF789440E460EE98
:101910008FE00E94480C61E08BE20E94200C089549
:10192000EF92FF920F931F93CF93DF93C82FD92F7E
:1019300080E30E940D0C83FDFBCF68817981769551
:101940006795769567957695679581E30E94200C5B
:1019500068816295660F607E82E30E94200C0A8196
:10196000102F093008F018E0612F85E30E94200C49
:10197000E12EF12C011581F08E010D5F1F4FC0E0AB
:10198000D0E0F80161918F018C2F8A5C0E94200CBD
:101990002196CE15DF05ACF380E00E94350CDF9177
:1019A000CF911F910F91FF90EF900895EF92FF92CA
:1019B0000F931F93CF93DF9300D00F92CDB7DEB775
:1019C000082F192F8CE20E940D0C282F21702983DB
:1019D00080FD0BC089810F900F900F90DF91CF9108
:1019E0001F910F91FF90EF90089581E60E940D0CDA
:1019F00090E0880F991F880F991F880F991FF80191
:101A00009183808382E60E940D0C282F22952695D3
:101A10002770F80180819181822B9183808385E6F4
:101A20000E940D0C8F70F80182838115C1F078013E
:101A3000F3E0EF0EF11C1B821A828A818A590E9400
:101A40000D0CF70181937F012A813B812F5F3F4F6E
:101A50003B832A83F80182812817310574F340E023
:101A600061E08CE20E94480CB5CF8F9381E08093B7
:101A70003E028F91189597FB072E16F4009407D01D
:101A800077FD09D00E944F0D07FC05D03EF49095DC
:101A900081959F4F0895709561957F4F0895AA1B7A
:101AA000BB1B51E107C0AA1FBB1FA617B70710F049
:101AB000A61BB70B881F991F5A95A9F7809590957B
:101AC000BC01CD0108958F929F92AF92BF92CF92A9
:101AD000DF92EF92FF92CF93DF93EC0168817981DF
:101AE0008A819B81611571058105910521F464E26C
:101AF00079ED8BE597E02DE133EF41E050E00E9476
:101B0000541249015A019B01AC01A7EAB1E40E94B9
:101B100073126B017C01ACEEB4EFA50194010E943D
:101B20008112DC01CB018C0D9D1DAE1DBF1DB7FFC9
:101B300003C00197A109B04888839983AA83BB8316
:101B40009F77DF91CF91FF90EF90DF90CF90BF9084
:101B5000AF909F908F9008950E94630D089585E047
:101B600091E00E94630D0895A0E0B0E0809305012C
:101B700090930601A0930701B09308010895FB011B
:101B8000DC0102C005900D9241505040D8F70895F5
:101B90000F931F93CF93DF93EC018B01892B51F4AB
:101BA000672B41F4E0E0F0E0CF01DF91CF911F918E
:101BB0000F9108956EE070E081E090E00E94661061
:101BC000FC01892B79F380E883830115110571F0FD
:101BD0001387028781E8838380913F0290914002BE
:101BE000892B21F4F0934002E0933F022097E1F229
:101BF000D187C087838182608383809141029091E5
:101C00004202892B89F6F0934202E09341028091CF
:101C1000430290914402892B39F6F0934402E093F9
:101C20004302C2CFA0E0B0E0E8E1FEE00C949612DF
:101C3000AE014B5F5F4FFA0161917191AF018091ED
:101C40004102909142020E947B0EE2E00C94B2129B
:101C5000A0E0B0E0EEE2FEE00C949412AE01495F29
:101C60005F4FDA016D917D91AD010FE312E0F80154
:101C700082819381DC0113962C911397286013962F
:101C80002C930E947B0E9C01D8011296ED91FC9141
:101C90009381977F9383C901E4E00C94B0120F9372
:101CA0001F93CF93DF93E0914102F0914202238191
:101CB00000E010E021FD0EC00FEF1FEFC801DF9123
:101CC000CF911F910F9108950995892B11F00FEF76
:101CD0001FEFCE01EC0189916091410270914202A7
:101CE000DB011896ED91FC918111EECF8AE0099508
:101CF000892B21F3E1CFABE0B0E0E1E8FEE00C940A
:101D000089126C017B018A01FC0117821682838192
:101D100081FFD9C19AE0592EF6012381F70123FDF5
:101D2000859123FF81917F01811509F41FC18532BF
:101D300039F423FD959123FF91917F01953229F488
:101D4000B60190E00E94C611E7CF30E0912C612CE3
:101D5000712CF0E27F1640F59B32D9F058F49032A6
:101D6000D1F09332F1F09E3299F576FCFFC0689481
:101D700076F806C09D3291F09033C1F4689470F803
:101D8000F70123FD959123FF91917F019111E1CFFF
:101D900029C0689471F8689472F8F2CF689473F867
:101DA000EFCF689474F8ECCF77FC1CC080ED890FFE
:101DB0008A30C8F676FE05C0959C800D1124982EB9
:101DC000DFCF659C800D1124682E689475F8D8CFFC
:101DD0009C3619F4689477F8D3CF9C3409F44BC03F
:101DE000983671F2892F8F7D8554833008F445C071
:101DF000933609F466C0933709F469C0933509F442
:101E000075C0943619F0993609F09FC0F80177FE35
:101E100095C061917191819191918F01272D2F76BC
:101E2000822E97FF09C090958095709561957F4FA0
:101E30008F4F9F4F689487F82AE030E0AE014F5FE4
:101E40005F4F5A010E94F6118A19A82E86FEC4C05F
:101E5000882D8E7FA91408F0BEC084FE11C182FCBB
:101E600005C1F82DFE7E8F2EB92C882D8678811520
:101E700009F4BFC000C131E083CF3115F9F0085F2C
:101E80001F4F8FE3898388248394912CAE014F5F89
:101E90005F4F5A01E89477F873FC03C086149104ED
:101EA000B0F181149104D1F5611409F435CFB60174
:101EB00080E290E00E94C6116A94F6CF0C5F1F4F3B
:101EC000E0CFF801808189830E5F1F4FDCCFF801DE
:101ED000A190B1908F01692D70E076FC02C06FEF88
:101EE0007FEFC5010E94BB114C01D4CFF801A19036
:101EF000B1908F01692D70E076FC02C06FEF7FEF2B
:101F0000C5010E94A9114C01689477F8C5CFB601AC
:101F100080E290E00E94C6116A94C0CFF50177FC80
:101F2000859177FE81915F01B60190E00E94C61114
:101F300061106A94F1E08F1A9108B3CF61917191A9
:101F4000072E000C880B990B68CF872CE89484F837
:101F50002AE030E0953739F1572D597F852E90379B
:101F600099F058F49835A9F09F36D9F0F60186819A
:101F700097812B96EFE00C94A5129837B9F774FC73
:101F800005C020E130E00FC0689484F8689482F8BE
:101F9000F8CF74FE03C0872D8660882E20E132E0E2
:101FA00002C028E030E0F80187FE10C06191719115
:101FB000819191918F01FE0131965F01AF010E94E5
:101FC000F6118A19A82EE89487F840CF6191719193
:101FD00080E090E0EFCF882EBA2C84FE46CFFE0141
:101FE000EA0DF11D8081803309F043C0282D297E40
:101FF000822E83FC0EC080FE4FC09A2CB61418F4BB
:10200000960C9B18B62C862D8B196B1408F480E067
:10201000B80EB61408F042C06B1884FE41C0B60179
:1020200080E390E00E94C61182FE09C088E590E03E
:1020300081FC02C088E790E0B6010E94C611A91495
:10204000D8F1AA94B12C4FEFA41AB40ACE0101968C
:102050004C01A80EB91EF50182915F01B60190E016
:102060000E94C6118A149B04B1F71ECFB92C882E8A
:10207000B6CF82FC02C0B394BCCFB394B394B9CFB3
:10208000B92C882EF2CEB60180E290E00E94C611F3
:1020900073947614C0F3B7CF7B2CFBCF612CBDCFEC
:1020A000882D8678811559F280E281FC8BE287FCCD
:1020B0008DE2B60190E0C1CFB60180E390E00E94CE
:1020C000C6119A94BCCF8FEF9FEF53CF0F931F93FE
:1020D000CF93DF93869F8001879F100D969F100DF1
:1020E0001124C8010E948210EC01009729F0A80178
:1020F00060E070E00E94B411CE01DF91CF911F919A
:102100000F9108950F931F93CF93DF939C01029734
:1021100010F422E030E0E0914502F091460280E0C8
:1021200090E0A0E0B0E0309791F4009709F448C047
:10213000821B930B84309105D0F58A819B816115B8
:10214000710581F1FB0193838283FE0111C04081FF
:1021500051810281138142175307D8F04217530768
:1021600099F4109761F012960C93129713961C93A2
:102170003296CF01DF91CF911F910F910895009377
:10218000450210934602F4CF009751F048175907C3
:1021900038F0AC01DB01CA01BD01DF01F801C3CF9A
:1021A000EF01F9CF9093460280934502CECFFE0116
:1021B000E80FF91F21933193029799838883D9CF30
:1021C00040914702509148024115510541F4409118
:1021D0000B0150910C0150934802409347028091AB
:1021E000090190910A01009741F48DB79EB7609163
:1021F0000D0170910E01861B970B4817590708F0C7
:10220000B8CF841B950B8217930708F4B2CFB9019E
:102210006E5F7F4F8617970708F4ABCF640F751F6B
:102220007093480260934702FA0121933193A1CF42
:10223000CF93DF939C010097E9F0FC013297138262
:102240001282C0914502D0914602DE0180E090E00A
:102250002097A1F480819181280F391F8091470236
:10226000909148028217930709F068C0F0934802E2
:10227000E0934702DF91CF910895DA01AE17BF07CF
:1022800008F042C012964D915C911397CD01411513
:10229000510599F7DC011396FC93EE9312974D913B
:1022A0005D919D01240F351FE217F30781F4208112
:1022B00031812E5F3F4F240F351FDC0111963C9377
:1022C0002E932281338113963C932E931297E0E054
:1022D000F0E08A819B810097B1F5DE018D919D919F
:1022E0008A0F9B1F20914702309148022817390717
:1022F00009F6309759F51092460210924502D09394
:102300004802C0934702B6CFB383A2834081518174
:10231000240F351FA217B30771F44E5F5F4F2D9145
:102320003C911197240F351F3183208312962D91F4
:102330003C9133832283009709F0ACCFF09346029F
:10234000E093450297CFFE01EC01C3CF13821282C6
:10235000D6CFFC010590615070400110D8F78095F0
:1023600090958E0F9F1F0895DC0101C06D93415021
:102370005040E0F70895FC01615070400190011059
:10238000D8F7809590958E0F9F1F08950F931F93F8
:10239000CF93DF93182F092FEB018B8181FD09C0AB
:1023A0001FEF0FEF812F902FDF91CF911F910F9192
:1023B000089582FF14C02E813F818C819D81281752
:1023C00039073CF4E881F981CF010196998388832C
:1023D00010838E819F8101969F838E83E3CFE88552
:1023E000F985812F0995892BA1F3DACFFA01AA2764
:1023F000283051F1203181F1E8946F936E7F6E5F48
:102400007F4F8F4F9F4FAF4FB1E03ED0B4E03CD0F5
:10241000670F781F891F9A1FA11D680F791F8A1FD8
:10242000911DA11D6A0F711D811D911DA11D20D03F
:1024300009F468943F912AE0269F11243019305DF9
:102440003193DEF6CF010895462F4770405D4193EA
:10245000B3E00FD0C9F7F6CF462F4F70405D4A3337
:1024600018F0495D31FD4052419302D0A9F7EACFFF
:10247000B4E0A6959795879577956795BA95C9F72E
:1024800000976105710508959B01AC010A2E069421
:102490005795479537952795BA95C9F7620F731FDA
:1024A000841F951FA01D0895052E97FB1EF4009410
:1024B0000E946B1257FD07D00E94BD1207FC03D08B
:1024C0004EF40C946B1250954095309521953F4FEA
:1024D0004F4F5F4F089590958095709561957F4F10
:1024E0008F4F9F4F08950E94DF12A59F900DB49FBC
:1024F000900DA49F800D911D11240895B7FF0C9499
:1025000073120E947312821B930B08952F923F92B5
:102510004F925F926F927F928F929F92AF92BF92F3
:10252000CF92DF92EF92FF920F931F93CF93DF939F
:10253000CDB7DEB7CA1BDB0B0FB6F894DEBF0FBEFC
:10254000CDBF09942A88398848885F846E847D8449
:102550008C849B84AA84B984C884DF80EE80FD804B
:102560000C811B81AA81B981CE0FD11D0FB6F894C1
:10257000DEBF0FBECDBFED010895A1E21A2EAA1B4A
:10258000BB1BFD010DC0AA1FBB1FEE1FFF1FA21723
:10259000B307E407F50720F0A21BB30BE40BF50B20
:1025A000661F771F881F991F1A9469F760957095A9
:1025B000809590959B01AC01BD01CF010895A29F2C
:1025C000B001B39FC001A39F700D811D1124911D07
:1025D000B29F700D811D1124911D0895F894FFCFB5
:1025E0008080020406010000000000490220000073
:1025F00001019900000000000000210302DEAD008F
:1026000000000000004F4B004645494C00537461E8
:102610007274696E67205352414D20746573742E35
:102620002E2E0D00577269746520706861736520E5
:102630006572726F723A206578745F72616D5B25A6
:1026400034645D203D2025303258202873686F7532
:102650006C642062652025303258290D0A005265CD
:102660007472696576616C2070686173652065724B
:10267000726F723A206578745F72616D5B253464A5
:102680005D203D2025303258202873686F756C64BA
:102690002062652025303258290D0A005352414DE1
:1026A000207465737420636F6D706C65746564204D
:1026B00077697468200D0A253464206572726F7220
:1026C0007320696E20777269746520706861736524
:1026D00020616E64200D0A253464206572726F7269
:1026E0007320696E2072657472696576616C207002
:1026F000686173650D0A0D0A004D454E550056611F
:102700006C6720310056616C6720320056616C673F
:082710002033002000580000F6
:00000001FF
