:100000000C9438000C9442000C9442000C94420072
:100010000C9442000C9442000C9442000C94420058
:100020000C9442000C9442000C9442000C94420048
:100030000C9442000C9442000C9442000C94420038
:100040000C9442000C9442000C9442000C94420028
:100050000C9442000C9442000C9442000C94420018
:100060000C9442000C9442000C9442000C94420008
:1000700011241FBECFEFD4E0DEBFCDBF0E944400ED
:100080000C9473000C94000085B7806885BF80B71E
:10009000806280BF80E0E82FF0E0F06110822FE501
:1000A0003AEE90E0215030409040E1F700C000006F
:1000B0008F5FF1CF10BC8FE189B988E18AB986E8FA
:1000C00080BD08955D9BFECF8CB908955F9BFECFE8
:1000D0008CB1089588275F99839508950E946200E6
:0A00E00080E090E00895F894FFCF4F
:00000001FF
